{
  "_format": "hh-sol-artifact-1",
  "contractName": "LiskPay",
  "sourceName": "contracts/LiskPay.sol",
  "abi": [
    {
      "inputs": [],
      "stateMutability": "nonpayable",
      "type": "constructor"
    },
    {
      "inputs": [
        {
          "internalType": "string",
          "name": "_name",
          "type": "string"
        }
      ],
      "name": "addName",
      "outputs": [],
      "stateMutability": "nonpayable",
      "type": "function"
    },
    {
      "inputs": [
        {
          "internalType": "address",
          "name": "user",
          "type": "address"
        },
        {
          "internalType": "uint256",
          "name": "_amount",
          "type": "uint256"
        },
        {
          "internalType": "string",
          "name": "_message",
          "type": "string"
        }
      ],
      "name": "createRequest",
      "outputs": [],
      "stateMutability": "nonpayable",
      "type": "function"
    },
    {
      "inputs": [],
      "name": "getBalance",
      "outputs": [
        {
          "internalType": "uint256",
          "name": "",
          "type": "uint256"
        }
      ],
      "stateMutability": "view",
      "type": "function"
    },
    {
      "inputs": [
        {
          "internalType": "address",
          "name": "_user",
          "type": "address"
        }
      ],
      "name": "getMyHistory",
      "outputs": [
        {
          "components": [
            {
              "internalType": "string",
              "name": "action",
              "type": "string"
            },
            {
              "internalType": "uint256",
              "name": "amount",
              "type": "uint256"
            },
            {
              "internalType": "string",
              "name": "message",
              "type": "string"
            },
            {
              "internalType": "address",
              "name": "otherPartyAddress",
              "type": "address"
            },
            {
              "internalType": "string",
              "name": "otherPartyName",
              "type": "string"
            }
          ],
          "internalType": "struct LiskPay.sendReceive[]",
          "name": "",
          "type": "tuple[]"
        }
      ],
      "stateMutability": "view",
      "type": "function"
    },
    {
      "inputs": [
        {
          "internalType": "address",
          "name": "_user",
          "type": "address"
        }
      ],
      "name": "getMyName",
      "outputs": [
        {
          "components": [
            {
              "internalType": "string",
              "name": "name",
              "type": "string"
            },
            {
              "internalType": "bool",
              "name": "hasName",
              "type": "bool"
            }
          ],
          "internalType": "struct LiskPay.userName",
          "name": "",
          "type": "tuple"
        }
      ],
      "stateMutability": "view",
      "type": "function"
    },
    {
      "inputs": [
        {
          "internalType": "address",
          "name": "_user",
          "type": "address"
        }
      ],
      "name": "getMyRequests",
      "outputs": [
        {
          "internalType": "address[]",
          "name": "",
          "type": "address[]"
        },
        {
          "internalType": "uint256[]",
          "name": "",
          "type": "uint256[]"
        },
        {
          "internalType": "string[]",
          "name": "",
          "type": "string[]"
        },
        {
          "internalType": "string[]",
          "name": "",
          "type": "string[]"
        }
      ],
      "stateMutability": "view",
      "type": "function"
    },
    {
      "inputs": [],
      "name": "owner",
      "outputs": [
        {
          "internalType": "address",
          "name": "",
          "type": "address"
        }
      ],
      "stateMutability": "view",
      "type": "function"
    },
    {
      "inputs": [
        {
          "internalType": "uint256",
          "name": "_request",
          "type": "uint256"
        }
      ],
      "name": "payRequest",
      "outputs": [],
      "stateMutability": "payable",
      "type": "function"
    }
  ],
  "bytecode": "0x608060405234801561001057600080fd5b50336000806101000a81548173ffffffffffffffffffffffffffffffffffffffff021916908373ffffffffffffffffffffffffffffffffffffffff1602179055506124f0806100606000396000f3fe60806040526004361061007b5760003560e01c8063370068aa1161004e578063370068aa1461015157806363d4dd3b1461018e5780638da5cb5b146101aa578063ba9a7a9e146101d55761007b565b806311456b471461008057806312065fe0146100a9578063169afbaa146100d4578063347b1b8314610111575b600080fd5b34801561008c57600080fd5b506100a760048036038101906100a29190611b09565b6101fe565b005b3480156100b557600080fd5b506100be61027b565b6040516100cb9190611b6b565b60405180910390f35b3480156100e057600080fd5b506100fb60048036038101906100f69190611be4565b61029a565b6040516101089190611cf1565b60405180910390f35b34801561011d57600080fd5b5061013860048036038101906101339190611be4565b6103a0565b6040516101489493929190611f51565b60405180910390f35b34801561015d57600080fd5b5061017860048036038101906101739190611be4565b6108b4565b60405161018591906120f8565b60405180910390f35b6101a860048036038101906101a39190612146565b610b68565b005b3480156101b657600080fd5b506101bf610f62565b6040516101cc9190612182565b60405180910390f35b3480156101e157600080fd5b506101fc60048036038101906101f7919061219d565b610f86565b005b6000600160003373ffffffffffffffffffffffffffffffffffffffff1673ffffffffffffffffffffffffffffffffffffffff1681526020019081526020016000209050818160000190805190602001906102599291906117a0565b5060018160010160006101000a81548160ff0219169083151502179055505050565b60003373ffffffffffffffffffffffffffffffffffffffff1631905090565b6102a2611826565b600160008373ffffffffffffffffffffffffffffffffffffffff1673ffffffffffffffffffffffffffffffffffffffff1681526020019081526020016000206040518060400160405290816000820180546102fc9061223b565b80601f01602080910402602001604051908101604052809291908181526020018280546103289061223b565b80156103755780601f1061034a57610100808354040283529160200191610375565b820191906000526020600020905b81548152906001019060200180831161035857829003601f168201915b505050505081526020016001820160009054906101000a900460ff1615151515815250509050919050565b6060806060806000600260008773ffffffffffffffffffffffffffffffffffffffff1673ffffffffffffffffffffffffffffffffffffffff1681526020019081526020016000208054905067ffffffffffffffff811115610404576104036119de565b5b6040519080825280602002602001820160405280156104325781602001602082028036833780820191505090505b5090506000600260008873ffffffffffffffffffffffffffffffffffffffff1673ffffffffffffffffffffffffffffffffffffffff1681526020019081526020016000208054905067ffffffffffffffff811115610493576104926119de565b5b6040519080825280602002602001820160405280156104c15781602001602082028036833780820191505090505b5090506000600260008973ffffffffffffffffffffffffffffffffffffffff1673ffffffffffffffffffffffffffffffffffffffff1681526020019081526020016000208054905067ffffffffffffffff811115610522576105216119de565b5b60405190808252806020026020018201604052801561055557816020015b60608152602001906001900390816105405790505b5090506000600260008a73ffffffffffffffffffffffffffffffffffffffff1673ffffffffffffffffffffffffffffffffffffffff1681526020019081526020016000208054905067ffffffffffffffff8111156105b6576105b56119de565b5b6040519080825280602002602001820160405280156105e957816020015b60608152602001906001900390816105d45790505b50905060005b600260008b73ffffffffffffffffffffffffffffffffffffffff1673ffffffffffffffffffffffffffffffffffffffff1681526020019081526020016000208054905081101561089c576000600260008c73ffffffffffffffffffffffffffffffffffffffff1673ffffffffffffffffffffffffffffffffffffffff168152602001908152602001600020828154811061068c5761068b61226d565b5b906000526020600020906004020190508060000160009054906101000a900473ffffffffffffffffffffffffffffffffffffffff168683815181106106d4576106d361226d565b5b602002602001019073ffffffffffffffffffffffffffffffffffffffff16908173ffffffffffffffffffffffffffffffffffffffff168152505080600101548583815181106107265761072561226d565b5b6020026020010181815250508060020180546107419061223b565b80601f016020809104026020016040519081016040528092919081815260200182805461076d9061223b565b80156107ba5780601f1061078f576101008083540402835291602001916107ba565b820191906000526020600020905b81548152906001019060200180831161079d57829003601f168201915b50505050508483815181106107d2576107d161226d565b5b60200260200101819052508060030180546107ec9061223b565b80601f01602080910402602001604051908101604052809291908181526020018280546108189061223b565b80156108655780601f1061083a57610100808354040283529160200191610865565b820191906000526020600020905b81548152906001019060200180831161084857829003601f168201915b505050505083838151811061087d5761087c61226d565b5b6020026020010181905250508080610894906122cb565b9150506105ef565b50838383839750975097509750505050509193509193565b6060600360008373ffffffffffffffffffffffffffffffffffffffff1673ffffffffffffffffffffffffffffffffffffffff168152602001908152602001600020805480602002602001604051908101604052809291908181526020016000905b82821015610b5d57838290600052602060002090600502016040518060a00160405290816000820180546109489061223b565b80601f01602080910402602001604051908101604052809291908181526020018280546109749061223b565b80156109c15780601f10610996576101008083540402835291602001916109c1565b820191906000526020600020905b8154815290600101906020018083116109a457829003601f168201915b50505050508152602001600182015481526020016002820180546109e49061223b565b80601f0160208091040260200160405190810160405280929190818152602001828054610a109061223b565b8015610a5d5780601f10610a3257610100808354040283529160200191610a5d565b820191906000526020600020905b815481529060010190602001808311610a4057829003601f168201915b505050505081526020016003820160009054906101000a900473ffffffffffffffffffffffffffffffffffffffff1673ffffffffffffffffffffffffffffffffffffffff1673ffffffffffffffffffffffffffffffffffffffff168152602001600482018054610acc9061223b565b80601f0160208091040260200160405190810160405280929190818152602001828054610af89061223b565b8015610b455780601f10610b1a57610100808354040283529160200191610b45565b820191906000526020600020905b815481529060010190602001808311610b2857829003601f168201915b50505050508152505081526020019060010190610915565b505050509050919050565b600260003373ffffffffffffffffffffffffffffffffffffffff1673ffffffffffffffffffffffffffffffffffffffff168152602001908152602001600020805490508110610bec576040517f08c379a0000000000000000000000000000000000000000000000000000000008152600401610be390612371565b60405180910390fd5b6000600260003373ffffffffffffffffffffffffffffffffffffffff1673ffffffffffffffffffffffffffffffffffffffff16815260200190815260200160002090506000818381548110610c4457610c4361226d565b5b906000526020600020906004020190506000670de0b6b3a76400008260010154610c6e9190612391565b9050803414610cb2576040517f08c379a0000000000000000000000000000000000000000000000000000000008152600401610ca990612437565b60405180910390fd5b8160000160009054906101000a900473ffffffffffffffffffffffffffffffffffffffff1673ffffffffffffffffffffffffffffffffffffffff166108fc349081150290604051600060405180830381858888f19350505050158015610d1c573d6000803e3d6000fd5b50610ddd338360000160009054906101000a900473ffffffffffffffffffffffffffffffffffffffff168460010154856002018054610d5a9061223b565b80601f0160208091040260200160405190810160405280929190818152602001828054610d869061223b565b8015610dd35780601f10610da857610100808354040283529160200191610dd3565b820191906000526020600020905b815481529060010190602001808311610db657829003601f168201915b50505050506111fe565b8260018480549050610def9190612457565b81548110610e0057610dff61226d565b5b9060005260206000209060040201838581548110610e2157610e2061226d565b5b90600052602060002090600402016000820160009054906101000a900473ffffffffffffffffffffffffffffffffffffffff168160000160006101000a81548173ffffffffffffffffffffffffffffffffffffffff021916908373ffffffffffffffffffffffffffffffffffffffff160217905550600182015481600101556002820181600201908054610eb49061223b565b610ebf929190611842565b506003820181600301908054610ed49061223b565b610edf929190611842565b5090505082805480610ef457610ef361248b565b5b6001900381819060005260206000209060040201600080820160006101000a81549073ffffffffffffffffffffffffffffffffffffffff02191690556001820160009055600282016000610f4891906118cf565b600382016000610f5891906118cf565b5050905550505050565b60008054906101000a900473ffffffffffffffffffffffffffffffffffffffff1681565b610f8e61190f565b33816000019073ffffffffffffffffffffffffffffffffffffffff16908173ffffffffffffffffffffffffffffffffffffffff168152505082816020018181525050818160400181905250600160003373ffffffffffffffffffffffffffffffffffffffff1673ffffffffffffffffffffffffffffffffffffffff16815260200190815260200160002060010160009054906101000a900460ff161561110257600160003373ffffffffffffffffffffffffffffffffffffffff1673ffffffffffffffffffffffffffffffffffffffff168152602001908152602001600020600001805461107b9061223b565b80601f01602080910402602001604051908101604052809291908181526020018280546110a79061223b565b80156110f45780601f106110c9576101008083540402835291602001916110f4565b820191906000526020600020905b8154815290600101906020018083116110d757829003601f168201915b505050505081606001819052505b600260008573ffffffffffffffffffffffffffffffffffffffff1673ffffffffffffffffffffffffffffffffffffffff16815260200190815260200160002081908060018154018082558091505060019003906000526020600020906004020160009091909190915060008201518160000160006101000a81548173ffffffffffffffffffffffffffffffffffffffff021916908373ffffffffffffffffffffffffffffffffffffffff1602179055506020820151816001015560408201518160020190805190602001906111d89291906117a0565b5060608201518160030190805190602001906111f59291906117a0565b50505050505050565b61120661194d565b6040518060400160405280600481526020017f53656e640000000000000000000000000000000000000000000000000000000081525081600001819052508281602001818152505081816040018190525083816060019073ffffffffffffffffffffffffffffffffffffffff16908173ffffffffffffffffffffffffffffffffffffffff1681525050600160008573ffffffffffffffffffffffffffffffffffffffff1673ffffffffffffffffffffffffffffffffffffffff16815260200190815260200160002060010160009054906101000a900460ff16156113b857600160008573ffffffffffffffffffffffffffffffffffffffff1673ffffffffffffffffffffffffffffffffffffffff16815260200190815260200160002060000180546113319061223b565b80601f016020809104026020016040519081016040528092919081815260200182805461135d9061223b565b80156113aa5780601f1061137f576101008083540402835291602001916113aa565b820191906000526020600020905b81548152906001019060200180831161138d57829003601f168201915b505050505081608001819052505b600360008673ffffffffffffffffffffffffffffffffffffffff1673ffffffffffffffffffffffffffffffffffffffff168152602001908152602001600020819080600181540180825580915050600190039060005260206000209060050201600090919091909150600082015181600001908051906020019061143d9291906117a0565b506020820151816001015560408201518160020190805190602001906114649291906117a0565b5060608201518160030160006101000a81548173ffffffffffffffffffffffffffffffffffffffff021916908373ffffffffffffffffffffffffffffffffffffffff16021790555060808201518160040190805190602001906114c89291906117a0565b5050506114d361194d565b6040518060400160405280600781526020017f526563656976650000000000000000000000000000000000000000000000000081525081600001819052508381602001818152505082816040018190525085816060019073ffffffffffffffffffffffffffffffffffffffff16908173ffffffffffffffffffffffffffffffffffffffff1681525050600160008773ffffffffffffffffffffffffffffffffffffffff1673ffffffffffffffffffffffffffffffffffffffff16815260200190815260200160002060010160009054906101000a900460ff161561168557600160008773ffffffffffffffffffffffffffffffffffffffff1673ffffffffffffffffffffffffffffffffffffffff16815260200190815260200160002060000180546115fe9061223b565b80601f016020809104026020016040519081016040528092919081815260200182805461162a9061223b565b80156116775780601f1061164c57610100808354040283529160200191611677565b820191906000526020600020905b81548152906001019060200180831161165a57829003601f168201915b505050505081608001819052505b600360008673ffffffffffffffffffffffffffffffffffffffff1673ffffffffffffffffffffffffffffffffffffffff168152602001908152602001600020819080600181540180825580915050600190039060005260206000209060050201600090919091909150600082015181600001908051906020019061170a9291906117a0565b506020820151816001015560408201518160020190805190602001906117319291906117a0565b5060608201518160030160006101000a81548173ffffffffffffffffffffffffffffffffffffffff021916908373ffffffffffffffffffffffffffffffffffffffff16021790555060808201518160040190805190602001906117959291906117a0565b505050505050505050565b8280546117ac9061223b565b90600052602060002090601f0160209004810192826117ce5760008555611815565b82601f106117e757805160ff1916838001178555611815565b82800160010185558215611815579182015b828111156118145782518255916020019190600101906117f9565b5b5090506118229190611992565b5090565b6040518060400160405280606081526020016000151581525090565b82805461184e9061223b565b90600052602060002090601f01602090048101928261187057600085556118be565b82601f1061188157805485556118be565b828001600101855582156118be57600052602060002091601f016020900482015b828111156118bd5782548255916001019190600101906118a2565b5b5090506118cb9190611992565b5090565b5080546118db9061223b565b6000825580601f106118ed575061190c565b601f01602090049060005260206000209081019061190b9190611992565b5b50565b6040518060800160405280600073ffffffffffffffffffffffffffffffffffffffff1681526020016000815260200160608152602001606081525090565b6040518060a00160405280606081526020016000815260200160608152602001600073ffffffffffffffffffffffffffffffffffffffff168152602001606081525090565b5b808211156119ab576000816000905550600101611993565b5090565b6000604051905090565b600080fd5b600080fd5b600080fd5b600080fd5b6000601f19601f8301169050919050565b7f4e487b7100000000000000000000000000000000000000000000000000000000600052604160045260246000fd5b611a16826119cd565b810181811067ffffffffffffffff82111715611a3557611a346119de565b5b80604052505050565b6000611a486119af565b9050611a548282611a0d565b919050565b600067ffffffffffffffff821115611a7457611a736119de565b5b611a7d826119cd565b9050602081019050919050565b82818337600083830152505050565b6000611aac611aa784611a59565b611a3e565b905082815260208101848484011115611ac857611ac76119c8565b5b611ad3848285611a8a565b509392505050565b600082601f830112611af057611aef6119c3565b5b8135611b00848260208601611a99565b91505092915050565b600060208284031215611b1f57611b1e6119b9565b5b600082013567ffffffffffffffff811115611b3d57611b3c6119be565b5b611b4984828501611adb565b91505092915050565b6000819050919050565b611b6581611b52565b82525050565b6000602082019050611b806000830184611b5c565b92915050565b600073ffffffffffffffffffffffffffffffffffffffff82169050919050565b6000611bb182611b86565b9050919050565b611bc181611ba6565b8114611bcc57600080fd5b50565b600081359050611bde81611bb8565b92915050565b600060208284031215611bfa57611bf96119b9565b5b6000611c0884828501611bcf565b91505092915050565b600081519050919050565b600082825260208201905092915050565b60005b83811015611c4b578082015181840152602081019050611c30565b83811115611c5a576000848401525b50505050565b6000611c6b82611c11565b611c758185611c1c565b9350611c85818560208601611c2d565b611c8e816119cd565b840191505092915050565b60008115159050919050565b611cae81611c99565b82525050565b60006040830160008301518482036000860152611cd18282611c60565b9150506020830151611ce66020860182611ca5565b508091505092915050565b60006020820190508181036000830152611d0b8184611cb4565b905092915050565b600081519050919050565b600082825260208201905092915050565b6000819050602082019050919050565b611d4881611ba6565b82525050565b6000611d5a8383611d3f565b60208301905092915050565b6000602082019050919050565b6000611d7e82611d13565b611d888185611d1e565b9350611d9383611d2f565b8060005b83811015611dc4578151611dab8882611d4e565b9750611db683611d66565b925050600181019050611d97565b5085935050505092915050565b600081519050919050565b600082825260208201905092915050565b6000819050602082019050919050565b611e0681611b52565b82525050565b6000611e188383611dfd565b60208301905092915050565b6000602082019050919050565b6000611e3c82611dd1565b611e468185611ddc565b9350611e5183611ded565b8060005b83811015611e82578151611e698882611e0c565b9750611e7483611e24565b925050600181019050611e55565b5085935050505092915050565b600081519050919050565b600082825260208201905092915050565b6000819050602082019050919050565b6000611ec78383611c60565b905092915050565b6000602082019050919050565b6000611ee782611e8f565b611ef18185611e9a565b935083602082028501611f0385611eab565b8060005b85811015611f3f5784840389528151611f208582611ebb565b9450611f2b83611ecf565b925060208a01995050600181019050611f07565b50829750879550505050505092915050565b60006080820190508181036000830152611f6b8187611d73565b90508181036020830152611f7f8186611e31565b90508181036040830152611f938185611edc565b90508181036060830152611fa78184611edc565b905095945050505050565b600081519050919050565b600082825260208201905092915050565b6000819050602082019050919050565b600060a0830160008301518482036000860152611ffb8282611c60565b91505060208301516120106020860182611dfd565b50604083015184820360408601526120288282611c60565b915050606083015161203d6060860182611d3f565b50608083015184820360808601526120558282611c60565b9150508091505092915050565b600061206e8383611fde565b905092915050565b6000602082019050919050565b600061208e82611fb2565b6120988185611fbd565b9350836020820285016120aa85611fce565b8060005b858110156120e657848403895281516120c78582612062565b94506120d283612076565b925060208a019950506001810190506120ae565b50829750879550505050505092915050565b600060208201905081810360008301526121128184612083565b905092915050565b61212381611b52565b811461212e57600080fd5b50565b6000813590506121408161211a565b92915050565b60006020828403121561215c5761215b6119b9565b5b600061216a84828501612131565b91505092915050565b61217c81611ba6565b82525050565b60006020820190506121976000830184612173565b92915050565b6000806000606084860312156121b6576121b56119b9565b5b60006121c486828701611bcf565b93505060206121d586828701612131565b925050604084013567ffffffffffffffff8111156121f6576121f56119be565b5b61220286828701611adb565b9150509250925092565b7f4e487b7100000000000000000000000000000000000000000000000000000000600052602260045260246000fd5b6000600282049050600182168061225357607f821691505b602082108114156122675761226661220c565b5b50919050565b7f4e487b7100000000000000000000000000000000000000000000000000000000600052603260045260246000fd5b7f4e487b7100000000000000000000000000000000000000000000000000000000600052601160045260246000fd5b60006122d682611b52565b91507fffffffffffffffffffffffffffffffffffffffffffffffffffffffffffffffff8214156123095761230861229c565b5b600182019050919050565b600082825260208201905092915050565b7f4e6f205375636820526571756573740000000000000000000000000000000000600082015250565b600061235b600f83612314565b915061236682612325565b602082019050919050565b6000602082019050818103600083015261238a8161234e565b9050919050565b600061239c82611b52565b91506123a783611b52565b9250817fffffffffffffffffffffffffffffffffffffffffffffffffffffffffffffffff04831182151516156123e0576123df61229c565b5b828202905092915050565b7f50617920436f727265637420416d6f756e740000000000000000000000000000600082015250565b6000612421601283612314565b915061242c826123eb565b602082019050919050565b6000602082019050818103600083015261245081612414565b9050919050565b600061246282611b52565b915061246d83611b52565b9250828210156124805761247f61229c565b5b828203905092915050565b7f4e487b7100000000000000000000000000000000000000000000000000000000600052603160045260246000fdfea26469706673582212209a7c58b72dacbc5940dc53f76fc3526cd8d99d6db453d4aeeda83b448aaf541264736f6c63430008090033",
  "linkReferences": {},
  "deployedLinkReferences": {}
}